:020000040800F2
:1000000018040020450100084D0100084F010008B8
:1000100051010008530100085501000800000000CC
:100020000000000000000000000000005701000870
:1000300059010008000000005B0100088D0600085F
:100040005F0100085F0100085F0100085F01000810
:100050005F0100085F0100085F0100085F01000800
:100060005F0100085F0100085F0100085F010008F0
:100070005F0100085F0100085F0100085F010008E0
:100080005F0100085F0100085F0100085F010008D0
:100090005F0100085F0100085F0100085F010008C0
:1000A0005F0100085F0100085F0100085F010008B0
:1000B0005F0100085F0100085F0100085F010008A0
:1000C0005F0100085F0100085F0100085F01000890
:1000D0005F0100085F0100085F0100085F01000880
:1000E0005F0100085F0100085F0100085F01000870
:1000F0005F0100085F0100085F0100085F01000860
:100100005F0100085F0100085F0100085F0100084F
:100110005F0100085F0100085F0100085F0100083F
:100120005F0100085F0100085F0100085F0100082F
:10013000DFF80CD000F018F800480047210C000848
:10014000180400200648804706480047FEE7FEE7FF
:10015000FEE7FEE7FEE7FEE7FEE7FEE7FEE7FEE777
:100160009D06000831010008064C074D06E0E068D6
:1001700040F0010394E8070098471034AC42F6D3EE
:10018000FFF7DAFF480D0008680D000888B00790F7
:100190000691002005900490039002900190009039
:1001A0000698C07800F00F0005900698C078C00649
:1001B000002806D5FFE70698817805980843059042
:1001C000FFE70698007800284BD0FFE70798006803
:1001D000019000200390FFE7039807283DD8FFE730
:1001E00003990120884002900698008802990840EF
:1001F00004900498029988422AD1FFE7039880006E
:10020000029002990F20884000900099019888433D
:1002100001900598029900FA01F1019808430190B4
:100220000698C078282806D1FFE703990120884066
:10023000079948610BE00698C078482806D1FFE787
:1002400003990120884007990861FFE7FFE7FFE76E
:10025000FFE7039801300390BEE701980799086013
:10026000FFE706980088B0F5807F50DBFFE707982E
:100270004068019000200390FFE70398072842D8C8
:10028000FFE7039800F108010120884002900698DA
:1002900000880299084004900498029988422DD160
:1002A000FFE703988000029002990F208840009099
:1002B00000990198884301900598029900FA01F18C
:1002C0000198084301900698C078282808D1FFE7D4
:1002D000039800F108010120884007994861FFE771
:1002E0000698C078482808D1FFE7039800F1080174
:1002F0000120884007990861FFE7FFE7FFE70398BF
:1003000001300390B9E7019807994860FFE708B00A
:100310007047000082B00190ADF80210BDF80200F5
:100320000199486102B0704782B00190ADF80210A7
:10033000BDF802000199086102B0704782B00190D7
:10034000ADF80210BDF802000199C86002B0704714
:1003500080B582B040F60040C4F201000190012156
:10036000FFF7D8FF01980221FFF7DEFF0198202157
:10037000FFF7DAFF02B080BD80B582B0082001210E
:1003800000F018F82320ADF8040003208DF80600D3
:1003900010208DF8070040F60040C4F201000090E4
:1003A00001A9FFF7F3FE0098FF21FFF7C7FF02B096
:1003B00080BD000082B001908DF803109DF803000D
:1003C00048B1FFE7019A41F21801C4F2020108683E
:1003D0001043086008E0019A41F21801C4F20201DA
:1003E000086890430860FFE702B0704786B0059048
:1003F0000020049003900290019041F20400C4F2A6
:100400000200006800F00C0004900498009040B1D5
:10041000FFE7009804280BD0FFE7009808280ED0CB
:1004200047E0059941F20020C0F27A00086047E0F9
:10043000059941F20020C0F27A00086040E041F2E4
:100440000400C4F20200016801F470110391006815
:1004500000F4803002900399022000EB9140039059
:10046000029848B9FFE7039840F60011C0F23D0139
:100470004843059908601BE041F20400C4F2020001
:1004800000688003002809D5FFE7039840F60011B3
:10049000C0F23D0148430599086008E0039841F225
:1004A0000021C0F27A01484305990860FFE7FFE7A1
:1004B00006E0059941F20020C0F27A000860FFE7EB
:1004C00041F20400C4F20200016801F0F00104915D
:1004D000049909090491049A40F6BE41C0F600014E
:1004E0008A5C0192059B1A68DDF804C022FA0CF2BE
:1004F0005A60026802F4E0620492049A120A0492BA
:10050000049A8A5C0192059B5A68DDF804C022FABD
:100510000CF29A60026802F460520492049AD20AC1
:100520000492049A895C0191059A5168019BD94013
:10053000D160006800F4404004900498800B04905F
:10054000049940F6BA40C0F60000405C019005995D
:10055000C868019AB0FBF2F0086106B0704700006D
:1005600080B500F001F880BD84B0002003900290B7
:1005700041F20001C4F20201086840F480300860D2
:10058000FFE741F20000C4F20200006800F400300E
:100590000290039801300390FFE702990020019038
:1005A00039B9FFE70398B0F5A06018BF01200190AA
:1005B000FFE70198C0070028E3D1FFE741F2000000
:1005C000C4F2020000688003002803D5FFE7012081
:1005D000029002E000200290FFE70298012851D12A
:1005E000FFE742F20001C4F20201086840F0100087
:1005F0000860086820F007000860086840F0020002
:10060000086041F20401C4F2020100910868086028
:1006100008680860086840F480600860086820F492
:100620007C100860086840F4E810086041F200019E
:10063000C4F20201086840F080700860FFE741F2F0
:100640000000C4F2020000688001002801D4FFE726
:10065000F5E741F20401C4F20201086820F003004A
:100660000860086840F002000860FFE741F20400FB
:10067000C4F20200006800F00C00082801D0FFE777
:10068000F4E700E0FFE704B07047000040F210011B
:10069000C2F20001086801300860704780B541F27D
:1006A0000002C4F20202106840F00100106041F242
:1006B0000401C4F2020108680023CFF6FF031840CA
:1006C000086010684FF6FF73CFF6F66318401060AD
:1006D000106820F480201060086820F4FE00086094
:1006E00041F20801C4F202014FF41F000860FFF755
:1006F00037FF4EF60851CEF200014FF0006008605F
:1007000080BD000080B582B00190FFE701980078BD
:10071000B8B1FFE7FFE743F60000C4F20100802113
:1007200000F070F808B9FFE7F5E70198017843F6A3
:100730000000C4F2010000F035F901980130019089
:10074000E4E702B080BD000080B58AB004200090CC
:1007500001210491FFF72EFE04994FF48040FFF72A
:1007600029FE4FF40070ADF8240003208DF8260018
:1007700018208DF8270040F60000C4F20100019017
:1007800009A90291FFF702FD009A019802994FF41E
:100790008063ADF824308DF82720FFF7F7FC4FF485
:1007A000E13005900020ADF81800ADF81A00ADF862
:1007B0001C000C21ADF81E10ADF8200043F600001F
:1007C000C4F20100039005A900F03EF803980499D3
:1007D00000F002F80AB080BD82B001908DF80310DD
:1007E0009DF8030030B1FFE70199888940F400507B
:1007F000888105E00199888920F400508881FFE70D
:1008000002B0704782B00190ADF8021000208DF860
:100810000100BDF80200B0F5007F01D1FFE7FFE75E
:1008200001980088BDF802100840000420B1FFE7DD
:1008300001208DF8010003E000208DF80100FFE7A2
:100840009DF8010002B0704780B58CB00B900A9102
:100850000020099008900790069005900A988089DA
:1008600008B1FFE7FFE70B9805900B98008A099005
:1008700009984CF6FF71084009900A98C1880998B8
:100880000843099009980B9908820B988089099070
:1008900009984EF6F311084009900A9988880A8948
:1008A00010434989014309980843099009980B9915
:1008B00088810B98808A099009984FF6FF4108407B
:1008C00009900A98818909980843099009980B9919
:1008D00088826846FFF78AFD059843F60001C4F256
:1008E0000101884203D1FFE70398089002E00298D3
:1008F0000890FFE70B988089000400280AD5FFE7DD
:100900000898192148430A9909684900B0FBF1F099
:10091000079009E00898192148430A990968890055
:10092000B0FBF1F00790FFE7079848F21F51C5F2BE
:10093000EB11A0FB01016FF00F0000EA51000990DC
:10094000079A09980009642100FB112006900B9872
:1009500080890004002810D5FFE70699322000EBBB
:10096000C10048F21F51C5F2EB11A0FB0110C0F30A
:1009700042110998084309900FE00699322000EBD4
:10098000011048F21F51C5F2EB11A0FB0110C0F39A
:100990004311099808430990FFE709980B990881CA
:1009A0000CB080BD82B00190ADF80210BDF802001D
:1009B0006FF35F200199888002B0704780B582B0E4
:1009C00000F0F4F850B1FFE740F6D440C0F6000064
:1009D000FFF798FE4FF0FF30019043E040F2000037
:1009E000C2F20000026840F20801C2F20001895C14
:1009F0008DF80310006840F20401C2F2000109689A
:100A000088420DD1FFE740F20001C2F200014FF031
:100A1000FF30086040F20401C2F20001086013E0F8
:100A200040F20001C2F200010868013046F267623C
:100A3000C6F2666280FB02235A1002EBD37202EB0D
:100A40008202801A0860FFE740F62650C0F60000D8
:100A5000FFF758FE0DF10300FFF754FE9DF8030069
:100A60000190FFE7019802B080BD000080B582B020
:100A700000F09CF838B1FFE740F6FE40C0F60000F9
:100A8000FFF740FE47E040F63B50C0F60000FFF79E
:100A900039FE40F20000C2F200000090FFF732FE83
:100AA000009800680190FFE7019840F20401C2F24B
:100AB00000010968884219D0FFE7019940F2080057
:100AC000C2F200000844FFF71DFEFFE70198013065
:100AD00046F26761C6F2666180FB0112511001EBBC
:100AE000D27101EB8101401A0190DDE7019940F2DA
:100AF0000800C2F200000844FFF704FE40F61C5054
:100B0000C0F60000FFF7FEFD40F20400C2F2000054
:100B1000FFF7F8FDFFE702B080BD000080B584B0AC
:100B2000039000F055F838B1FFE740F6EA40C0F610
:100B30000000FFF7E7FD37E040F20000C2F20000DE
:100B40000068013038B9FFE740F20001C2F200014D
:100B500000200860FFE740F20401C2F200010191A9
:100B60000868013046F26762C6F2666280FB0223C3
:100B70005A1002EBD37202EB8202801A08600398CB
:100B80000A6840F20801C2F200010291885440F65E
:100B90000E50C0F60000FFF7B5FD019902980968F4
:100BA0000844FFF7AFFDFFE704B080BD81B040F21D
:100BB0000000C2F200000068013018B9FFE7012010
:100BC000009002E000200090FFE7009801B070471D
:100BD00081B040F20000C2F20000006840F204015F
:100BE000C2F200010968013188420FD0FFE740F2EC
:100BF0000000C2F20000006858B9FFE740F20400AC
:100C0000C2F200000068042803D1FFE70120009031
:100C100002E000200090FFE7009801B0704700005C
:100C200080B582B00020019001200090FFF7A4FB66
:100C3000FFF78AFD40F6CE40C0F60000FFF762FDE8
:100C4000FFE7009808B1FFE7FBE7FFF7B7FEFFF704
:100C50007FFB0120FFF762FF0220FFF75FFF032009
:100C6000FFF75CFF0420FFF759FF0520FFF756FF51
:100C70000620FFF753FFFFF7F9FEFFF79FFEFFF790
:100C8000F5FE0720FFF74AFFFFF7F0FE0820FFF709
:100C900045FFFFF75DFB002002B080BD02E008C801
:100CA000121F08C1002AFAD170477047002001E0E6
:100CB00001C1121F002AFBD1704702040608000080
:100CC000000001020304010203040607080931328F
:100CD000333435000A2051756575652069732065C8
:100CE0006D707479202121200A000A2051756575E4
:100CF000652069732066756C6C2121200A00200A2A
:100D000020456D7074792051756575650A000A205B
:100D1000496E736572746564202D3E000A20526529
:100D20006172202D3E000A2044656C657465642064
:100D3000656C656D656E74202D3E000A2046726FED
:100D40006E74202D3E000000680D00080000002099
:100D5000080000009C0C0008700D0008080000202E
:100D600010040000AC0C0008FFFFFFFFFFFFFFFFB7
:0400000508000145A9
:00000001FF
