:020000040800F2
:1000000028040020450100084D0100084F010008A8
:1000100051010008530100085501000800000000CC
:100020000000000000000000000000005701000870
:1000300059010008000000005B010008250C0008C1
:100040005F0100085F0100085F0100085F01000810
:100050005F0100085F0100085F0100085F01000800
:100060005F0100085F0100085F0100085F010008F0
:100070005F0100085F0100085F0100085F010008E0
:100080005F0100085F0100085F0100085F010008D0
:100090005F0100085F0100085F0100085F010008C0
:1000A0005F0100085F0100085F0100085F010008B0
:1000B0005F0100085F0100085F0100085F010008A0
:1000C0005F0100085F0100085F0100085F01000890
:1000D0005F0100085F0100085F0100085F01000880
:1000E0005F0100085F0100085F0100085F01000870
:1000F0005F0100085F0100085F0100085F01000860
:100100005F0100085F0100085F0100085F0100084F
:100110005F0100085F0100085F0100085F0100083F
:100120005F0100085F0100085F0100085F0100082F
:10013000DFF80CD000F018FA0048004781130008DF
:10014000280400200648804706480047FEE7FEE7EF
:10015000FEE7FEE7FEE7FEE7FEE7FEE7FEE7FEE777
:10016000350C00083101000830B50B46014600206F
:100170002022012409E021FA02F59D4205D303FA69
:1001800002F5491B04FA02F52844151EA2F10102EA
:10019000F1DC30BD2DE9F05F0546002092469B461C
:1001A00088460646814640241BE02846414647468D
:1001B000224600F0FAF953465A46C01A914110D32C
:1001C00011461846224600F0E1F92D1A67EB0108A6
:1001D0004F4622460120002100F0D8F917EB000914
:1001E0004E41201EA4F10104DFDC484631462A4678
:1001F0004346BDE8F09F2DE9FE4F804681EA0300AB
:10020000C00F0C46009021F0004123F00045B8EBF0
:100210000200A94105D24046214690461C460B46A5
:10022000024623F00040104347D0270DC7F30A00D1
:10023000C3F30A510290401A019040286BDAC3F3CD
:10024000130040F4801B0098924620B10023D2EBAB
:10025000030A63EB0B0B01985946C0F1400250466C
:1002600000F094F906460D4650465946019A00F0B2
:10027000ACF910EB08006141002487EA115284EACE
:10028000E7731A4340D0009A62B3019A012A4FEAF9
:10029000075215DC001B61EB02014FF0004202EA3D
:1002A0000752CDE90042001C41F5801132462B4631
:1002B00000F0ACF903B0BDE8F08F40462146F9E705
:1002C000001B61EB0201001C41F5801300185B412B
:1002D0002018A2F5001747EB030140EAD570B619C4
:1002E0006D4111E06D084FEA360645EAC0754FEAE8
:1002F0000752001B61EB0201001C41F58011490807
:100300004FEA30000019514132462B4603B0BDE898
:10031000F04F00F06CB90098012240000023D0EBB0
:10032000020263EBE073009821464FEAE074B8EBF9
:10033000000061EB0401E9E783F000435BE781F033
:10034000004158E72DE9FE4F81EA030404F0004420
:1003500021F0004100944FF0000B23F0004350EADD
:1003600001045ED052EA03045BD0C3F30A54C1F324
:100370000A552C44A4F2F3340194A0FB0254C1F3B7
:10038000130141F48011C3F3130343F4801301FB01
:10039000024400FB034E840A970A44EA815447EA68
:1003A0008357A4FB076802958D0A05FB07854FEA72
:1003B000932C04FB0C542705029D4FEA065847EA8C
:1003C0001637B5EB08056EEB070C870E920E47EA61
:1003D000811742EA8312A7FB0201B6EB0B0164EB23
:1003E00000042B0D43EA0C335E1844EB1C50DA4634
:1003F0005146E7FB0201C5F313044FEA0B3343EA0E
:1004000014534FEA0432019C43EA0603A4F10C049E
:100410000294009CCDE900B400F0F8F803B0BDE808
:10042000F08F00200146F9E72DE9F04D81EA030441
:1004300004F0004B21F0004514464FF0000A23F071
:10044000004150EA050220D054EA01021DD0C5F354
:100450000A570246C5F31303C1F31300C1F30A564A
:1004600040F4801543F48013A7EB0608101BD64612
:1004700008F2FD3873EB050002D308F1010801E032
:1004800092185B41B8F1000F03DA00200146BDE885
:10049000F08D00204FF48011064684460EE0171BB5
:1004A00073EB050705D3121B63EB050306434CEA08
:1004B000010C49084FEA300092185B4150EA0107ED
:1004C000EDD152EA030012D082EA040083EA05016A
:1004D000084305D0101BAB4106D20122002306E0E1
:1004E00000224FF0004302E06FF0010253101AEBBC
:1004F00006004CEB085110EB0A0041EB0B01BDE884
:10050000F04D00F074B8C1F30A52C1F3130140F288
:10051000FF3341F480119A4202DA0020014670470D
:1005200040F233439A42A2F2334202DC524200F0DC
:100530003CB800F02BB8000030B5041E71F1000487
:1005400004DB4FF00044404264EB0101141E73F1E0
:10055000000405DB1C464FF00043524263EB0403EA
:10056000994208BF904230BD064C074D06E0E06856
:1005700040F0010394E8070098471034AC42F6D3EA
:10058000FFF7DAFD681E0008881E0008202A04DB39
:10059000203A00FA02F1002070479140C2F1200396
:1005A00020FA03F3194390407047202A04DB203AD5
:1005B00021FA02F00021704721FA02F3D040C2F183
:1005C00020029140084319467047202A06DBCB17CA
:1005D000203A41FA02F043EAE07306E041FA02F3FE
:1005E000D040C2F12002914008431946704710B52F
:1005F000141E73F1000408DA401C41F10001921846
:100600005B411A4301D120F0010010BD2DE9F04DEE
:1006100092469B4611B1B1FA81F202E0B0FA80F243
:1006200020329046FFF7B2FF04460F4640EA0A0028
:1006300041EA0B0153465A46084313D0114653EA88
:10064000010019D0C8F140025046FFF7AEFF054641
:100650000E46504659464246FFF798FF084305D0DC
:10066000012004E020463946BDE8F08D0020054316
:1006700046EAE0762C4337430A986305E40AA0EB88
:1006800008000022FD0A44EA47540A3002D500203F
:100690000146E9E7010510196941DDE9084500193E
:1006A0006941BDE8F04DA2E788B0079006910020AF
:1006B0000590049003900290019000900698C078F5
:1006C00000F00F0005900698C078C006002806D5F7
:1006D000FFE706988178059808430590FFE706989C
:1006E000007800284BD0FFE70798006801900020B1
:1006F0000390FFE7039807283DD8FFE703990120FF
:100700008840029006980088029908400490049856
:10071000029988422AD1FFE703988000029002994B
:100720000F20884000900099019888430190059817
:10073000029900FA01F10198084301900698C078E7
:10074000282806D1FFE703990120884007994861CE
:100750000BE00698C078482806D1FFE703990120EE
:10076000884007990861FFE7FFE7FFE7FFE7039885
:1007700001300390BEE7019807990860FFE70698EB
:100780000088B0F5807F50DBFFE707984068019054
:1007900000200390FFE70398072842D8FFE703985B
:1007A00000F1080101208840029006980088029913
:1007B000084004900498029988422DD1FFE70398DD
:1007C0008000029002990F208840009000990198C3
:1007D000884301900598029900FA01F101980843B5
:1007E00001900698C078282808D1FFE7039800F107
:1007F00008010120884007994861FFE70698C07802
:10080000482808D1FFE7039800F10801012088403B
:1008100007990861FFE7FFE7FFE7039801300390BE
:10082000B9E7019807994860FFE708B070470000F2
:1008300082B00190ADF80210BDF802000199486144
:1008400002B0704782B00190ADF80210BDF802000E
:100850000199086102B0704782B00190ADF80210B2
:10086000BDF802000199C86002B0704780B582B03F
:1008700040F60040C4F2010001900121FFF7D8FFCB
:1008800001980221FFF7DEFF01982021FFF7DAFF30
:1008900002B080BD80B582B00820012100F018F8B8
:1008A0002320ADF8040003208DF8060010208DF8F9
:1008B000070040F60040C4F20100009001A9FFF7D4
:1008C000F3FE0098FF21FFF7C7FF02B080BD0000D4
:1008D00082B001908DF803109DF8030048B1FFE746
:1008E000019A41F21801C4F202010868104308603D
:1008F00008E0019A41F21801C4F20201086890432D
:100900000860FFE702B0704786B0059000200490B1
:1009100003900290019041F20400C4F202000068CA
:1009200000F00C0004900498009040B1FFE700989C
:1009300004280BD0FFE7009808280ED047E005995F
:1009400041F20020C0F27A00086047E0059941F2C8
:100950000020C0F27A00086040E041F20400C4F2D6
:100960000200016801F470110391006800F4803006
:1009700002900399022000EB91400390029848B93D
:10098000FFE7039840F60011C0F23D014843059986
:1009900008601BE041F20400C4F20200006880031A
:1009A000002809D5FFE7039840F60011C0F23D0189
:1009B00048430599086008E0039841F20021C0F21D
:1009C0007A01484305990860FFE7FFE706E00599CB
:1009D00041F20020C0F27A000860FFE741F2040013
:1009E000C4F20200016801F0F001049104990909C0
:1009F0000491049A41F6C451C0F600018A5C019248
:100A0000059B1A68DDF804C022FA0CF25A600268ED
:100A100002F4E0620492049A120A0492049A8A5C34
:100A20000192059B5A68DDF804C022FA0CF29A6024
:100A3000026802F460520492049AD20A0492049A60
:100A4000895C0191059A5168019BD940D160006889
:100A500000F4404004900498800B0490049941F6FF
:100A6000C050C0F60000405C01900599C868019A2A
:100A7000B0FBF2F0086106B07047000080B582B0AC
:100A800040F60040C4F2010001902021FFF7D0FEA3
:100A900001980221FFF7D6FE01980121FFF7D2FE4F
:100AA00002B080BD80B500F001F880BD84B00020A8
:100AB0000390029041F20001C4F20201086840F480
:100AC00080300860FFE741F20000C4F202000068D5
:100AD00000F400300290039801300390FFE7029980
:100AE0000020019039B9FFE70398B0F5A06018BF66
:100AF00001200190FFE70198C0070028E3D1FFE73C
:100B000041F20000C4F2020000688003002803D50F
:100B1000FFE70120029002E000200290FFE7029828
:100B2000012851D1FFE742F20001C4F20201086836
:100B300040F010000860086820F0070008600868AE
:100B400040F00200086041F20401C4F20201009189
:100B50000868086008680860086840F480600860F9
:100B6000086820F47C100860086840F4E810086009
:100B700041F20001C4F20201086840F08070086090
:100B8000FFE741F20000C4F2020000688001002883
:100B900001D4FFE7F5E741F20401C4F2020108685D
:100BA00020F003000860086840F002000860FFE7DA
:100BB00041F20400C4F20200006800F00C000828B2
:100BC00001D0FFE7F4E700E0FFE704B07047000062
:100BD00080B582B0009000980138B0F1807F03D3D7
:100BE000FFE70120019019E0009801384EF214014E
:100BF000CEF2000108604FF0FF300F2100F002FA42
:100C00004EF21801CEF20001002008604EF21002F0
:100C1000CEF20002072111600190FFE7019802B0B7
:100C200080BD000040F22001C2F2000108680130DE
:100C30000860704780B541F20002C4F202021068F9
:100C400040F00100106041F20401C4F202010868A2
:100C50000023CFF6FF031840086010684FF6FF73BB
:100C6000CFF6F66318401060106820F48020106002
:100C7000086820F4FE00086041F20801C4F2020195
:100C80004FF41F000860FFF70DFF4EF60851CEF23B
:100C900000014FF00060086080BD000080B582B0A8
:100CA00040F20000C2F20000006844F6D351C1F2E5
:100CB0006201A0FB01108009FFF78AFF01900198F3
:100CC000B0F1FF3F02DCFFE7FFE7FEE702B080BDC7
:100CD00080B582B00190FFE701980078B8B1FFE7D6
:100CE000FFE743F60000C4F20100802100F0AEF8F7
:100CF00008B9FFE7F5E70198017843F60000C4F270
:100D0000010000F073F9019801300190E4E702B0AE
:100D100080BD000080B58AB00420009001210491BC
:100D2000FFF7D6FD04994FF48040FFF7D1FD4FF453
:100D30000070ADF8240003208DF8260018208DF8EF
:100D4000270040F60000C4F20100019009A90291B9
:100D5000FFF7AAFC009A019802994FF48063ADF85E
:100D600024308DF82720FFF79FFC4FF4E1300590E9
:100D70000020ADF81800ADF81A00ADF81C000C21E9
:100D8000ADF81E10ADF8200043F60000C4F20100DB
:100D9000039005A900F07CF8039840F2255100F07B
:100DA0001DF80398082100F007F80398049900F053
:100DB00037F80AB080BD000082B00190ADF8021093
:100DC000BDF802008005002801D5FFE7FFE7BDF868
:100DD0000200C0430199088002B0704783B00290BE
:100DE000ADF806100020ADF80400ADF80200BDF823
:100DF000060040F66A11884201D1FFE7FFE79DF83F
:100E00000700ADF80400BDF8041001208840ADF8DB
:100E10000200BDF80200C0430299088003B0704789
:100E200082B001908DF803109DF8030030B1FFE708
:100E30000199888940F40050888105E001998889EA
:100E400020F400508881FFE702B0704782B0019023
:100E5000ADF8021000208DF80100BDF80200B0F5D9
:100E6000007F01D1FFE7FFE701980088BDF802107D
:100E70000840000420B1FFE701208DF8010003E0E5
:100E800000208DF80100FFE79DF8010002B07047D7
:100E900080B58CB00B900A910020099008900790C3
:100EA000069005900A98808908B1FFE7FFE70B9844
:100EB00005900B98008A099009984CF6FF7108403C
:100EC00009900A98C18809980843099009980B99D4
:100ED00008820B988089099009984EF6F311084012
:100EE00009900A9988880A89104349890143099819
:100EF0000843099009980B9988810B98808A09907A
:100F000009984FF6FF41084009900A98818909988D
:100F10000843099009980B9988826846FFF7F4FC0A
:100F2000059843F60001C4F20101884203D1FFE7AE
:100F30000398089002E002980890FFE70B988089D8
:100F4000000400280AD5FFE70898192148430A99A8
:100F500009684900B0FBF1F0079009E008981921F1
:100F600048430A9909688900B0FBF1F00790FFE750
:100F7000079848F21F51C5F2EB11A0FB01016FF079
:100F80000F0000EA51000990079A099800096421AE
:100F900000FB112006900B9880890004002810D5D2
:100FA000FFE70699322000EBC10048F21F51C5F25D
:100FB000EB11A0FB0110C0F34211099808430990FE
:100FC0000FE00699322000EB011048F21F51C5F2E4
:100FD000EB11A0FB0110C0F34311099808430990DD
:100FE000FFE709980B9908810CB080BD82B0019091
:100FF000ADF80210BDF802006FF35F200199888000
:1010000002B0704782B08DF8070000919DF907008B
:1010100000280AD4FFE7009800019DF907104EF25E
:101020000042CEF2000288540BE0009800019DF8C7
:10103000071001F00F014EF61452CEF20002885450
:10104000FFE702B07047000082B00190FFE701980F
:1010500070B1FFE709200090FFE7009820B1FFE79B
:10106000009801380090F8E7019801380190EEE708
:1010700002B0704780B582B000F048F950B1FFE788
:1010800041F6E650C0F60000FFF722FE4FF0FF30B9
:1010900001904FE040F20800C2F20000026840F206
:1010A0001801C2F20001895C8DF80310006840F25B
:1010B0001001C2F20001096888420DD1FFE740F239
:1010C0000801C2F200014FF0FF30086040F2100149
:1010D000C2F20001086013E040F20801C2F2000110
:1010E0000868013046F26762C6F2666280FB02233E
:1010F0005A1002EBD37202EB8202801A0860FFE7FB
:1011000041F62160C0F60000FFF7E2FD9DF8030004
:1011100000F1300143F60000C4F20100FFF766FF62
:1011200041F6E350C0F60000FFF7D2FD9DF8030042
:101130000190FFE7019802B080BD000082B00190ED
:1011400040F22000C2F200000068019908440090BB
:10115000FFE740F22000C2F20000006800998842D8
:1011600002D2FFE700BFF4E702B0704780B584B059
:1011700000F0CCF838B1FFE741F6D450C0F60000DB
:10118000FFF7A6FD70E041F63960C0F60000FFF7FA
:101190009FFD40F20800C2F200000290006830306B
:1011A00081B243F60000C4F20100FFF71FFF41F6D1
:1011B0005760C0F60000FFF78BFD029800680390AF
:1011C000FFE7039840F21001C2F20001096888426B
:1011D0002AD0FFE7FFE743F60000C4F201008021B8
:1011E000FFF734FE08B9FFE7F5E7039940F218006E
:1011F000C2F20000405C00F1300143F60000C4F28E
:101200000100FFF7F3FEFFE70398013046F2676144
:10121000C6F2666180FB0112511001EBD27101EB45
:101220008101401A0390CCE7039940F21800C2F202
:101230000000405C00F1300143F60000C4F2010000
:101240000190FFF7D3FE41F61460C0F60000FFF7EF
:101250003FFD019840F21001C2F2000109683031EF
:1012600089B2FFF7C3FEFFE704B080BD80B584B04C
:10127000039000208DF80800019000F059F838B173
:10128000FFE741F6FE50C0F60000FFF721FD3BE00E
:1012900040F20800C2F200000068013038B9FFE7F0
:1012A00040F20801C2F2000100200860FFE740F2AE
:1012B0001001C2F200010868013046F26762C6F20E
:1012C000666280FB02235A1002EBD37202EB8202A9
:1012D000801A086003980A6840F21801C2F20001FF
:1012E000885441F64760C0F60000FFF7F1FC039A0E
:1012F00041F66461C0F6000101A8009000F0DEF83C
:101300000098FFF7E5FCFFE704B080BD81B040F234
:101310000800C2F200000068013018B9FFE70120A0
:10132000009002E000200090FFE7009801B07047B5
:1013300081B040F20800C2F20000006840F21001E3
:10134000C2F200010968013188420FD0FFE740F284
:101350000800C2F20000006858B9FFE740F2100030
:10136000C2F200000068042803D1FFE701200090CA
:1013700002E000200090FFE7009801B070470000F5
:1013800080B584B000200390FFF784FAFFF786FC55
:10139000FFF7C0FCFFE740F20C00C2F2000000685B
:1013A00008B1FFE7F7E7FFE7FFF768FB4FF47A7054
:1013B000FFF7C4FE40F20400C2F2000000680128FA
:1013C00074D1FFE740F20401C2F20001002008607E
:1013D0004FF6FF700190FFF737FE0198FFF734FEDC
:1013E0000198FFF731FE0198FFF72EFE0198FFF7F5
:1013F0002BFE0198FFF728FE0198FFF725FE0198C4
:10140000FFF722FE0198FFF71FFE0198FFF71CFE71
:101410000198FFF719FE0198FFF716FEFFF72AFE65
:1014200003200290FFF710FE0120FFF71FFF029834
:10143000FFF70AFE0220FFF719FF0298FFF704FEEC
:101440000298FFF713FF0298FFF7FEFD0420FFF755
:101450000DFF0298FFF7F8FD0520FFF707FF029840
:10146000FFF7F2FD0620FFF701FF0298FFF7ECFD02
:10147000FFF77CFE0298FFF7E7FDFFF7FBFD029800
:10148000FFF7E2FDFFF772FE0298FFF7DDFD072090
:10149000FFF7ECFE0298FFF7D7FDFFF767FE029813
:1014A000FFF7D2FD0820FFF7E1FEFFE7FFF7DEF9C7
:1014B0004FF6FF70FFF7C8FD76E700000FB4084B4A
:1014C00010B504A902AA039800F0DEF8044602A9A8
:1014D000002000F070FC204610BC5DF814FB0000FA
:1014E000B71D000802E008C8121F08C1002AFAD17F
:1014F00070477047002001E001C1121F002AFBD194
:10150000704700002DE9FF5F82B00021DDE9043063
:10151000020DDDF840B0034318D044F61050A2F29B
:10152000FF3242431514119801281FD0A5EB0B0080
:10153000401C5FEA000A4FF000064E4FDFF838917A
:10154000B046504615D5CAF1000413E011980124A5
:101550004AA3012801D16FEA0B010298119AC0E950
:101560000031C0E9024206B0BDE8F09FCBF10000B7
:10157000DFE704460021404A491842EB0450CDE918
:10158000001012E0E00707D032463B46404649468D
:10159000FEF7D8FE8046894632463B46104619463D
:1015A000FEF7D0FE06460F466410002CEAD1DDE9B6
:1015B0000401DDE90023BAF1000F06DAFEF7C2FEEE
:1015C00042464B46FEF7BEFE05E0FEF72DFF4246C3
:1015D0004B46FEF729FF04460E460022284BFEF735
:1015E000ABFF03D84FF0FF30014607E00022254B48
:1015F00020463146FEF7FFFDFEF785FF102409E087
:10160000002C0ADB0A220023FEF7C4FD039B3032C4
:101610001A55641E50EA0102F2D1641C039AC4F107
:1016200011031444119A012A03D0012208430DD159
:101630000AE0084304D000204FF0110B119072E72C
:10164000A3EB0B056D1E0DE05B4504DD4FF00002C2
:1016500005F1010504E003DA4FF00002A5F10105F0
:10166000002AECD002981199C0E90231C0E9004586
:1016700079E70000000014400000F03F3000000057
:101680000000F0430000E03F2DE9FF4F95B09B467E
:101690008946064600250FE2252877D100242746F3
:1016A000F84A0121059400E0044316F8013F203B6D
:1016B00001FA03F01042F7D130782A2811D06FF0E8
:1016C0002F033078A0F13002092A16D8059A44F089
:1016D000020402EB820203EB42021044761C0590E6
:1016E000EFE759F8042B0592002A03DA504244F43C
:1016F0000054059044F00204761C30782E2816D150
:1017000016F8010F44F004042A280DD06FF02F02C0
:101710003078A0F13003092B09D807EB870302EBDF
:101720004303C718761CF3E759F8047B761C30781E
:101730006C280FD006DC4C2817D068280DD06A28FA
:1017400014D104E0742810D07A280FD10DE044F4AD
:1017500000140AE044F4801401E044F44014727868
:10176000824202D104F58014761C761C30786628FB
:101770000BD013DC582877D009DC002875D0452819
:10178000F6D04628F4D047281AD19DE118E0632806
:1017900035D0642879D0652812D195E1702873D0AE
:1017A00008DC6728F1D069286FD06E280DD06F282B
:1017B00006D1B5E073282CD0752875D0782874D060
:1017C0005A46179990476D1C75E1C4F302500228E0
:1017D00009D003280DD0D9F8001004280DD00D60D1
:1017E00009F1040967E1D9F80010EA17C1E90052CC
:1017F000F6E7D9F800100D80F2E70D70F0E719F860
:10180000041B8DF8001000208DF80100EA4601202D
:1018100003E059F804AB4FF0FF3061074FF00001CF
:1018200002D40DE008F101018846B9420FDA804583
:10183000F8DB1AF808100029F4D108E008F10101DA
:1018400088468142FADB1AF808100029F6D105987B
:101850005B46A0EB080721463846179A00F094FA39
:10186000284400EB080507E04DE029E10DE01AF8F7
:10187000010B5A4617999047B8F10108F7D25B4619
:1018800021463846179A13E142E00A220092C4F337
:1018900002524FF0000A022A08D059F804CB032A5A
:1018A0004FEAEC710AD00DE029E02AE009F10701C6
:1018B00021F00702F2E802C1914609E00FFA8CFC20
:1018C0004FEAEC71042A03D14FFA8CFC4FEAEC7119
:1018D000002907DA0A460021DCF1000C61EB020165
:1018E0002D2202E0220504D52B228DF804200122AE
:1018F00003E0E20701D02022F7E7904659E00A21F1
:1019000002E010220DE010214FF0000A00910BE0E0
:1019100010224FF0000A44F004040827009203E06C
:1019200008224FF0000A0092C4F30252022A05D0A6
:1019300059F804CB0021032A08D009E009F1070176
:1019400021F00702F2E802C1914605E01FFA8CFC83
:10195000042A01D10CF0FF0C4FF00008220728D513
:10196000702806D0009B83F0100353EA0A0305D0C9
:101970000EE040228DF80420012208E05CEA01021A
:1019800006D030228DF804208DF805000222904602
:10199000009B83F0080353EA0A030AD15CEA0102C0
:1019A00001D1620705D530228DF804204FF00108DF
:1019B0007F1E582804D034A003900EA802900DE09A
:1019C00036A0F9E753466046009AFEF7E3FB8446EB
:1019D0000398825C0298401E029002705CEA01004B
:1019E000F0D1029806A9081A00F1200A600702D572
:1019F00024F4803400E00127574502DDA7EB0A00FC
:101A000000E0002000EB0A01009005984144401AD4
:101A10000590E00306D45B462146179A059800F02E
:101A2000B3F90544002706E001A85A46C05D17999E
:101A300090476D1C7F1C4745F6DBE0030CD55B46E9
:101A40002146179A059800F09FF9054404E03020DC
:101A50005A46179990476D1C0099481E009000291E
:101A6000F5DC08E0029802995A460078491C029178
:101A7000179990476D1CBAF10001AAF1010AF1DC37
:101A800065E1000009280100303132333435363742
:101A900038396162636465660000000030313233BA
:101AA000343536373839414243444546000000005A
:101AB00000F058F90544761C307800287FF4ECAD2E
:101AC00019B02846BDE8F08F620700D4062709F157
:101AD000070222F0070CFCE80223E14603F000486D
:101AE0005FEA080C02D00FF2702C0DE05FEA045C94
:101AF00002D50FF2682C07E05FEAC47C02D00FF237
:101B0000602C01E0AFF2700C4FF0FF3823F000437F
:101B1000CDF850C065280CD006DC452809D04628F1
:101B20001DD047283DD13DE0662818D067287ED1DA
:101B300038E00021112F01DB112000E0781CCDE9F5
:101B4000000106A90EA8FFF7DDFCDDE90F010E9AE2
:101B500003910021009207F1010A04914DE04FF03A
:101B600000400097CDE9011006A90EA8FFF7CAFCB6
:101B7000DDE90F0203920E9B11990022DDF80CA003
:101B80000093049211B9791C00EB010AB7EB0A002B
:101B900004D4C0F1FF3007F1010A0490AAEB07005A
:101BA000019044E0012F00DA01270021112F01DD0F
:101BB000112000E03846CDE9000106A90EA8FFF784
:101BC000A1FCDDE90F010E9A03910021049100921E
:101BD000BA4621070CD40399514500DA8A46BAF176
:101BE000010F05DD009AAAF10101515C302908D0EE
:101BF000B84202DA10F1040F06DA0121CDE9011032
:101C000015E0AAF10101E9E7002805DC0499014487
:101C10000491AAEB000102E0411C514500DD8A4617
:101C20000499401A401C01904FF000400290200798
:101C300004D40198504501DBCDF8048000208DF8D4
:101C40004F0002980DF14F07B0F1004F25D02B2027
:101C50000E9002984FF0020800280CDA40420290E1
:101C60002D200E9007E00A210298FEF77DFA303110
:101C7000029007F8011DB8F10001A8F10108F2DC9B
:101C800002980028EFD1791E0E980870307800F085
:101C9000200040F0450007F8020D12A8C01B00F11B
:101CA00007081498007800B1012000EB0A010198A0
:101CB00001EBE07105984144401A401E0590E00395
:101CC00006D45B462146179A059800F05DF8054456
:101CD0001498007818B15A46179990476D1CE00384
:101CE00024D55B462146179A059800F04DF8054427
:101CF0001CE00498002807DBDDE90301884203DDCE
:101D00000098405C179901E0179930205A46904797
:101D1000049805F10105401C04900198401E0190B3
:101D200004D12E205A46179990476D1CBAF1000134
:101D3000AAF1010ADDDC05E017F8010B5A461799F4
:101D400090476D1CB8F10001A8F10108F4DC5B4676
:101D50002146179A0598ABE62D0000002B000000E5
:101D6000200000002DE9F041044600251E461746DC
:101D7000880404D405E039462020B0476D1C641E59
:101D8000F9D52846BDE8F0812DE9F041044600254B
:101D90001E469046C80301D5302700E0202788045E
:101DA00004D505E041463846B0476D1C641EF9D5A0
:101DB0002846BDE8F0810A68531C0B60107070471C
:101DC00002040608000000000102030401020304EB
:101DD00006070809200D0A20456D70747920517599
:101DE0006575650D0A000A0D2051756575652069D8
:101DF0007320656D707479202121200A0D000A0D71
:101E00002051756575652069732066756C6C21219C
:101E1000200A0D000D0A2052656172202D3E2020FF
:101E2000000D0A2044656C6574656420656C656D01
:101E3000656E74202D3E2020000D0A2046726F6EC4
:101E400074202D3E2020000A0D20496E73657274A7
:101E50006564202D3E20000D0A204974656D7320B5
:101E60002D3E200025640000881E00080000002090
:101E700014000000E41400089C1E00081800002054
:101E800010040000F414000800A24A04010000003D
:0C1E9000FFFFFFFF01000000FFFFFFFF4D
:0400000508000145A9
:00000001FF
